:020000040000FA
:1000000046EF19F01200FFFF80EF19F01200FFFF1A
:10001000FFFFFFFFFFFFFFFF00EF18F01200FFFFE1
:10002000FFFFFFFFFFFFFFFFFFFFFFFFFFFFFFFFE0
:10003000FFFFFFFFFFFFFFFFFFFFFFFFFFFFFFFFD0
:10004000FFFFFFFFFFFFFFFFFFFFFFFFFFFFFFFFC0
:10005000FFFFFFFFFFFFFFFFFFFFFFFFFFFFFFFFB0
:10006000FFFFFFFFFFFFFFFFFFFFFFFFFFFFFFFFA0
:10007000FFFFFFFFFFFFFFFFFFFFFFFFFFFFFFFF90
:10008000FFFFFFFFFFFFFFFFFFFFFFFFFFFFFFFF80
:10009000FFFFFFFFFFFFFFFFFFFFFFFFFFFFFFFF70
:1000A000FFFFFFFFFFFFFFFFFFFFFFFFFFFFFFFF60
:1000B000FFFFFFFFFFFFFFFFFFFFFFFFFFFFFFFF50
:1000C000FFFFFFFFFFFFFFFFFFFFFFFFFFFFFFFF40
:1000D000FFFFFFFFFFFFFFFFFFFFFFFFFFFFFFFF30
:1000E000FFFFFFFFFFFFFFFFFFFFFFFFFFFFFFFF20
:1000F000FFFFFFFFFFFFFFFFFFFFFFFFFFFFFFFF10
:10010000FFFFFFFFFFFFFFFFFFFFFFFFFFFFFFFFFF
:10011000FFFFFFFFFFFFFFFFFFFFFFFFFFFFFFFFEF
:10012000FFFFFFFFFFFFFFFFFFFFFFFFFFFFFFFFDF
:10013000FFFFFFFFFFFFFFFFFFFFFFFFFFFFFFFFCF
:10014000FFFFFFFFFFFFFFFFFFFFFFFFFFFFFFFFBF
:10015000FFFFFFFFFFFFFFFFFFFFFFFFFFFFFFFFAF
:10016000FFFFFFFFFFFFFFFFFFFFFFFFFFFFFFFF9F
:10017000FFFFFFFFFFFFFFFFFFFFFFFFFFFFFFFF8F
:10018000FFFFFFFFFFFFFFFFFFFFFFFFFFFFFFFF7F
:10019000FFFFFFFFFFFFFFFFFFFFFFFFFFFFFFFF6F
:1001A000FFFFFFFFFFFFFFFFFFFFFFFFFFFFFFFF5F
:1001B000FFFFFFFFFFFFFFFFFFFFFFFFFFFFFFFF4F
:1001C000FFFFFFFFFFFFFFFFFFFFFFFFFFFFFFFF3F
:1001D000FFFFFFFFFFFFFFFFFFFFFFFFFFFFFFFF2F
:1001E000FFFFFFFFFFFFFFFFFFFFFFFFFFFFFFFF1F
:1001F000FFFFFFFFFFFFFFFFFFFFFFFFFFFFFFFF0F
:100200000000060001723120010001000000000022
:1002100000000000FFFFFFFFFFFFFFFFFFFFFFFFEA
:10022000FFFFFFFFFFFFFFFFFFFFFFFFFFFFFFFFDE
:10023000FFFFFFFFFFFFFFFFFFFFFFFFFFFFFFFFCE
:10024000FFFFFFFFFFFFFFFFFFFFFFFFFFFFFFFFBE
:10025000FFFFFFFFFFFFFFFFFFFFFFFFFFFFFFFFAE
:10026000FFFFFFFFFFFFFFFFFFFFFFFFFFFFFFFF9E
:10027000FFFFFFFFFFFFFFFFFFFFFFFFFFFFFFFF8E
:10028000FFFFFFFFFFFFFFFFFFFFFFFFFFFFFFFF7E
:10029000FFFFFFFFFFFFFFFFFFFFFFFFFFFFFFFF6E
:1002A000FFFFFFFFFFFFFFFFFFFFFFFFFFFFFFFF5E
:1002B000FFFFFFFFFFFFFFFFFFFFFFFFFFFFFFFF4E
:1002C000FFFFFFFFFFFFFFFFFFFFFFFFFFFFFFFF3E
:1002D000FFFFFFFFFFFFFFFFFFFFFFFFFFFFFFFF2E
:1002E000FFFFFFFFFFFFFFFFFFFFFFFFFFFFFFFF1E
:1002F000FFFFFFFFFFFFFFFFFFFFFFFFFFFFFFFF0E
:10030000D9CFE6FFE1CFD9FF0E015151F36EFE0EBA
:10031000DBCFF4FFF350F45C02E3030ED4D0FE0E07
:10032000DB500C0DF3CFE9FFF4CFEAFF450EE926D1
:100330000E0EEA22EF0402E1070EC5D0FC0EDBCF61
:1003400000F0FD0EDBCF01F0FE0EDB500C0DF3CF05
:10035000E9FFF4CFEAFF450EE9260E0EEA22050E6C
:10036000E926000EEA22EE50EFCFEAFFE96EEECF6B
:1003700002F0EFCF03F00050025C0150035802E29C
:10038000080EA1D0FA0EDBCF00F0FB0EDBCF01F0A0
:10039000FE0EDB500C0DF3CFE9FFF4CFEAFF450E64
:1003A000E9260E0EEA22050EE926000EEA22EE509C
:1003B000EFCFEAFFE96E040EE926000EEA22EECF47
:1003C00002F0EFCF03F00250005C0350015822E32B
:1003D000FA0EDBCF04F0FB0EDBCF05F0FE0EDB5098
:1003E0000C0DF3CFE9FFF4CFEAFF450EE9260E0E20
:1003F000EA22050EE926000EEA22EE50EFCFEAFFD0
:10040000E96EEECF06F0EFCF07F00450065C055022
:10041000075802E2080E57D0FC0EDBCF02F0FD0EAB
:10042000DBCF03F0FE0EDB500C0DF3CFE9FFF4CF72
:10043000EAFF450EE9260E0EEA22050EE926000E19
:10044000EA22EE50EFCFEAFFE96E060EE926000E33
:10045000EA220250EE24006E0350EE20016EFE0EE2
:10046000DB500C0DF3CFE9FFF4CFEAFF450EE92690
:100470000E0EEA22EE5200C0EEFF01C0EDFFFE0EAE
:10048000DB500C0DF3CFE9FFF4CFEAFF450EE92670
:100490000E0EEA22030EE926000EEA22FA0EDBCF48
:1004A000EEFFFB0EDBCFEDFFFE0EDB500C0DF3CFAE
:1004B000E9FFF4CFEAFF450EE9260E0EEA22010E0F
:1004C000EF6E000E00D0E552E7CFD9FF1200D9CF72
:1004D000E6FFE1CFD9FF0E015151F36EFE0EDBCFE7
:1004E000F4FFF350F45C02E3030EB3D0FE0EDB50D6
:1004F0000C0DF3CFE9FFF4CFEAFF450EE9260E0E0F
:10050000EA22EF0402E1070EA4D0FC0EDBCF00F0DC
:10051000FD0EDBCF01F0FE0EDB500C0DF3CFE9FF3B
:10052000F4CFEAFF450EE9260E0EEA22050EE92673
:10053000000EEA22EE50EFCFEAFFE96EEECF02F0B6
:10054000EFCF03F00050025C0150035802E2080EA6
:1005500080D0FA0EDBCF00F0FB0EDBCF01F0FE0EF9
:10056000DB500C0DF3CFE9FFF4CFEAFF450EE9268F
:100570000E0EEA22050EE926000EEA22EE50EFCF1B
:10058000EAFFE96E040EE926000EEA22EECF02F041
:10059000EFCF03F00250005C0350015822E3FA0E43
:1005A000DBCF04F0FB0EDBCF05F0FE0EDB500C0DB5
:1005B000F3CFE9FFF4CFEAFF450EE9260E0EEA225B
:1005C000050EE926000EEA22EE50EFCFEAFFE96EB3
:1005D000EECF06F0EFCF07F00450065C0550075849
:1005E00002E2080E36D0FE0EDB500C0DF3CFE9FF11
:1005F000F4CFEAFF450EE9260E0EEA22EE52FC0E7B
:10060000DBCFEEFFFD0EDBCFEDFFFE0EDB500C0D62
:10061000F3CFE9FFF4CFEAFF450EE9260E0EEA22FA
:10062000030EE926000EEA22FA0EDBCFEEFFFB0EE8
:10063000DBCFEDFFFE0EDB500C0DF3CFE9FFF4CF67
:10064000EAFF450EE9260E0EEA22010EEF6E000EBD
:1006500000D0E552E7CFD9FF1200D9CFE6FFE1CFB6
:10066000D9FF0E015151F36EFE0EDBCFF4FFF350B4
:10067000F45C02E3030E48D0FE0EDB500C0DF3CF0A
:10068000E9FFF4CFEAFF450EE9260E0EEA22EF500D
:1006900002E1050E39D0FE0EDB500C0DF3CFE9FF61
:1006A000F4CFEAFF450EE9260E0EEA22EE52EECF17
:1006B00002F0EFCF03F0FE0EDB500C0DF3CFE9FF9D
:1006C000F4CFEAFF450EE9260E0EEA22050EE926D2
:1006D000000EEA22EE50EFCFEAFFE96E060EE926A1
:1006E000000EEA22EE50025C006EEE500358016EDE
:1006F000FC0EDBCFE9FFFD0EDBCFEAFF00C0EEFF13
:1007000001C0EDFF000E00D0E552E7CFD9FF120087
:10071000D9CFE6FFE1CFD9FF0E015151F36EFE0EA6
:10072000DBCFF4FFF350F45C02E3030E1DD0FE0EAA
:10073000DB500C0DF3CFE9FFF4CFEAFF450EE926BD
:100740000E0EEA22EF5002E1050E0ED0FE0EDB5037
:100750000C0DF3CFE9FFF4CFEAFF450EE9260E0EAC
:10076000EA22EF6A000E00D0E552E7CFD9FF12006F
:10077000D9CFE6FFE1CFD9FF0E015151F36EFE0E46
:10078000DBCFF4FFF350F45C02E3030E1FD0FE0E48
:10079000DB500C0DF3CFE9FFF4CFEAFF450EE9265D
:1007A0000E0EEA22050EE926000EEA22EE50EFCFE9
:1007B000EAFFE96EE9CF00F0EACF01F0FC0E00C0DD
:1007C000DBFFFD0E01C0DBFF000E00D0E552E7CFDE
:1007D000D9FF1200D9CFE6FFE1CFD9FF0E01515169
:1007E000F36EFE0EDBCFF4FFF350F45C02E3030E76
:1007F00055D1FE0EDB500C0DF3CFE9FFF4CFEAFF2D
:10080000450EE9260E0EEA22EF5002E1010E46D116
:10081000FE0EDB500C0DF3CFE9FFF4CFEAFF450EDF
:10082000E9260E0EEA22050EE926000EEA22EE5017
:10083000EFCFEAFFE96E060EE926000EEA22EE2A65
:10084000EF22FE0EDB500C0DF3CFE9FFF4CFEAFFF1
:10085000450EE9260E0EEA22050EE926000EEA22D2
:10086000EE50EFCFEAFFE96E060EE926000EEA220F
:10087000EECF00F0EFCF01F0FE0EDB500C0DF3CF0A
:10088000E9FFF4CFEAFF450EE9260E0EEA22EE520A
:10089000EECF02F0EFCF03F00250001802E1035058
:1008A000011801E0F9D0FE0EDB500C0DF3CFE9FF8B
:1008B000F4CFEAFF450EE9260E0EEA22030EE926E2
:1008C000000EEA22EE50ED100DE1FE0EDB500C0D95
:1008D000F3CFE9FFF4CFEAFF450EE9260E0EEA2238
:1008E000EF6A40D0FE0EDB500C0DF3CFE9FFF4CFE2
:1008F000EAFF450EE9260E0EEA22050EE926000E55
:10090000EA22EE50EFCFEAFFE96E060EE926000E6E
:10091000EA22EECF02F0EFCF03F0FE0EDB500C0D1B
:10092000F3CFE9FFF4CFEAFF450EE9260E0EEA22E7
:10093000030EE926000EEA220250EE24006E035058
:10094000EE20016EFE0EDB500C0DF3CFE9FFF4CF6D
:10095000EAFF450EE9260E0EEA22EE5200C0EEFF37
:1009600001C0EDFFFE0EDB500C0DF3CFE9FFF4CF1D
:10097000EAFF450EE9260E0EEA22080EE926000ED1
:10098000EA22EE50ED1026E0FE0EDB500C0DF3CF08
:10099000E9FFF4CFEAFF450EE9260E0EEA22080E23
:1009A000E926000EEA22EF50E66EFE0EDB500C0D3B
:1009B000F3CFE9FFF4CFEAFF450EE9260E0EEA2257
:1009C000070EE926000EEA22EF50E66E5FEC0BF010
:1009D000E552E552FE0EDB500C0DF3CFE9FFF4CFEC
:1009E000EAFF450EE9260E0EEA22070EE926000E62
:1009F000EA22EF5026E0FE0EDB500C0DF3CFE9FFAC
:100A0000F4CFEAFF450EE9260E0EEA22080EE9268B
:100A1000000EEA22EE50ED1014E1FE0EDB500C0D3C
:100A2000F3CFE9FFF4CFEAFF450EE9260E0EEA22E6
:100A3000070EE926000EEA22EF50E66E24EC08F0DD
:100A4000E552FE0EDB500C0DF3CFE9FFF4CFEAFFC9
:100A5000450EE9260E0EEA220A0EE926000EEA22CB
:100A6000EE50ED1019E0FE0EDB500C0DF3CFE9FF58
:100A7000F4CFEAFF450EE9260E0EEA220A0EE92619
:100A8000000EEA22EECF00F0EFCF01F004D001C05B
:100A9000FAFF0050F96EFBDF030E00D0E552E7CFFE
:100AA000D9FF1200D9CFE6FFE1CFD9FF0E01515196
:100AB000F36EFE0EDBCFF4FFF350F45C02E3030EA3
:100AC00036D0FE0EDB500C0DF3CFE9FFF4CFEAFF7A
:100AD000450EE9260E0EEA22EF5002E1010E27D064
:100AE000FE0EDB500C0DF3CFE9FFF4CFEAFF450E0D
:100AF000E9260E0EEA22050EE926000EEA22EE5045
:100B0000EFCFEAFFE96E060EE926000EEA22EECFED
:100B100000F0EFCF01F0FC0EDBCFE9FFFD0EDBCFE5
:100B2000EAFF00C0EEFF01C0EDFF000E00D0E5526D
:100B3000E7CFD9FF1200D9CFE6FFE1CFD9FF030EEF
:100B4000E126010ED6CFDBFF020ED7CFDBFFD95057
:100B5000010FE96EDACFEAFF0E016B51EE266C5100
:100B6000ED22020EDB50D76E010EDB50D66EF294F2
:100B70000E01412B000E42230E01532B542355230B
:100B80005623DF6A0E015151DF5C01E32BD1DF50A8
:100B90000C0DF3CFE9FFF4CFEAFF450EE9260E0E68
:100BA000EA22EF5001E11CD1DF500C0DF3CFE9FF39
:100BB000F4CFEAFF450EE9260E0EEA22050EE926DD
:100BC000000EEA22EE50EFCFEAFFE96E060EE926AC
:100BD000000EEA22EECF00F0EFCF01F0DF500C0D57
:100BE000F3CFE9FFF4CFEAFF450EE9260E0EEA2225
:100BF000EE52EECF02F0EFCF03F00250001802E108
:100C00000350011801E0ECD0DF500C0DF3CFE9FFE9
:100C1000F4CFEAFF450EE9260E0EEA22030EE9267E
:100C2000000EEA22EE50ED100CE1DF500C0DF3CF78
:100C3000E9FFF4CFEAFF450EE9260E0EEA22EF6A3D
:100C40003DD0DF500C0DF3CFE9FFF4CFEAFF450EA6
:100C5000E9260E0EEA22050EE926000EEA22EE50E3
:100C6000EFCFEAFFE96E060EE926000EEA22EECF8C
:100C700002F0EFCF03F0DF500C0DF3CFE9FFF4CF1C
:100C8000EAFF450EE9260E0EEA22030EE926000EC3
:100C9000EA220250EE24006E0350EE20016EDF5077
:100CA0000C0DF3CFE9FFF4CFEAFF450EE9260E0E57
:100CB000EA22EE5200C0EEFF01C0EDFFDF500C0D46
:100CC000F3CFE9FFF4CFEAFF450EE9260E0EEA2244
:100CD000080EE926000EEA22EE50ED1024E0DF5067
:100CE0000C0DF3CFE9FFF4CFEAFF450EE9260E0E17
:100CF000EA22080EE926000EEA22EF50E66EDF50E7
:100D00000C0DF3CFE9FFF4CFEAFF450EE9260E0EF6
:100D1000EA22070EE926000EEA22EF50E66E5FECAB
:100D20000BF0E552E552DF500C0DF3CFE9FFF4CFA5
:100D3000EAFF450EE9260E0EEA22070EE926000E0E
:100D4000EA22EF5024E0DF500C0DF3CFE9FFF4CF9F
:100D5000EAFF450EE9260E0EEA22080EE926000EED
:100D6000EA22EE50ED1013E1DF500C0DF3CFE9FF56
:100D7000F4CFEAFF450EE9260E0EEA22070EE92619
:100D8000000EEA22EF50E66E24EC08F0E552DF5048
:100D90000C0DF3CFE9FFF4CFEAFF450EE9260E0E66
:100DA000EA220A0EE926000EEA22EE50ED1018E0C3
:100DB000DF500C0DF3CFE9FFF4CFEAFF450EE92633
:100DC0000E0EEA220A0EE926000EEA22EECF00F00D
:100DD000EFCF01F004D001C0FAFF0050F96EFBDF45
:100DE000DF2AD0D600016E85030EE15C03E200D05D
:100DF000E16AE552E16EE552E7CFD9FF1200D9CFA3
:100E0000E6FFE1CFD9FF030EE126D950010FE96ECD
:100E1000DACFEAFFA00EEE6E000EED6EDF6A100E66
:100E2000DF5C3DE2010EDBCFE9FF020EDBCFEAFF24
:100E3000EF500F0B006EFD0EDB50005C29E1DF5020
:100E4000016AB00F006E000E0122010E00C0DBFF30
:100E5000020E01C0DBFF010EDBCFE9FF020EDBCF8C
:100E6000EAFFEF50F00BE66E010EDBCFE9FF020E5A
:100E7000DBCFEAFFE552E750EF6E010EDBCFE9FF73
:100E8000020EDBCFEAFFFE0EDB50EF26000E09D08C
:100E9000010EDB2A020E01E3DB2ADF2AC0D7030E94
:100EA00000D0006E030EE15C02E2E16AE552E16E01
:100EB0000050E552E7CFD9FF1200D9CFE6FFE1CFCE
:100EC000D9FF030EE126D950010FE96EDACFEAFF10
:100ED000A00EEE6E000EED6EDF6A100EDF5C34E2E7
:100EE000010EDBCFE9FF020EDBCFEAFFEF500F0B65
:100EF000006EFC0EDB50005C20E1DF50016AB00F99
:100F0000006E000E0122010E00C0DBFF020E01C0C8
:100F1000DBFF010EDBCFE9FF020EDBCFEAFFEF5074
:100F20000F0BE66EFD0EDBCFE9FFFE0EDBCFEAFF17
:100F3000E552E750EF6E000E09D0010EDB2A020EDB
:100F400001E3DB2ADF2AC9D7030E00D0006E030EAF
:100F5000E15C02E2E16AE552E16E0050E552E7CF62
:100F6000D9FF1200D9CFE6FFE1CFD9FF00016A35E2
:100F700014E2100E0001E76E6A19E8AE02D0E73401
:100F800002D0E7506A5D09E2FD0EDBCFE9FFFE0EFD
:100F9000DBCFEAFF6AC0EFFF08D0FD0EDBCFE9FF31
:100FA000FE0EDBCFEAFF100EEF6E000E00D0E55212
:100FB000E7CFD9FF1200D9CFE6FFE1CFD9FF030E6B
:100FC000E126D950010FE96EDACFEAFFA00EEE6EEE
:100FD000000EED6EDF6A100EDF5C28E2010EDBCF43
:100FE000E9FF020EDBCFEAFFEF500F0B006EFE0EA3
:100FF000DB50005C14E1010EDBCFE9FF020EDBCF1A
:10100000EAFFEF50E00BE66EFC0EDBCFE9FFFD0ED2
:10101000DBCFEAFFE552E750EF6E000E09D0010E7C
:10102000DB2A020E01E3DB2ADF2AD5D7030E00D02C
:10103000006E030EE15C02E2E16AE552E16E0050EF
:10104000E552E7CFD9FF1200D9CFE6FFE1CFD9FFB4
:10105000030EE126D950010FE96EDACFEAFFA00EA8
:10106000EE6E000EED6EDF6A100EDF5C57E2010ED1
:10107000DBCFE9FF020EDBCFEAFFEF500F0B006E74
:10108000FE0EDB50005C43E1010EDBCFE9FF020EF8
:10109000DBCFEAFFEF50E00B16E10F0E006E010E02
:1010A000DBCFE9FF020EDBCFEAFF0050EF16200E88
:1010B000006E010EDBCFE9FF020EDBCFEAFF00502E
:1010C000EF2616D922D0DF50016AB00F006E000E55
:1010D0000122010E00C0DBFF020E01C0DBFF010E8A
:1010E000DBCFE9FF020EDBCFEAFFEF50F00B006E23
:1010F000F00E005C0AE2100E006E010EDBCFE9FF7D
:10110000020EDBCFEAFF0050EF26000E09D0010EE1
:10111000DB2A020E01E3DB2ADF2AA6D7030E00D06A
:10112000006E030EE15C02E2E16AE552E16E0050FE
:10113000E552E7CFD9FF1200D9CFE6FFE1CFD9FFC3
:10114000030EE126D950010FE96EDACFEAFFA00EB7
:10115000EE6E000EED6EDF6A100EDF5C54E2010EE3
:10116000DBCFE9FF020EDBCFEAFFEF500F0B0001F0
:101170006A5D42E1DF50016AB00F006E000E01228D
:10118000010E00C0DBFF020E01C0DBFF010EDBCF52
:10119000E9FF020EDBCFEAFFEF50E00B20E1DF506A
:1011A000016AA00F006E000E0122010E00C0DBFFDD
:1011B000020E01C0DBFF0F0E006E010EDBCFE9FF58
:1011C000020EDBCFEAFF0050EF16010EDBCFE9FF86
:1011D000020EDBCFEAFFF29C1BEF0FF00DD0100EDA
:1011E000006E010EDBCFE9FF020EDBCFEAFF0050FD
:1011F000EF5EF29C1BEF0FF0010EDB2A020E01E303
:10120000DB2ADF2AA9D7000E00D0006E030EE15CB6
:1012100002E2E16AE552E16E0050E552E7CFD9FF04
:101220001200D9CFE6FFE1CFD9FF030EE126D95056
:10123000010FE96EDACFEAFFA00EEE6E000EED6E42
:10124000DF6A100EDF5C43E2010EDBCFE9FF020E26
:10125000DBCFEAFFEF500F0B00016A5D10E10F0ECC
:10126000006E010EDBCFE9FF020EDBCFEAFF00507C
:10127000EF16010EDBCFE9FF020EDBCFEAFF010E16
:10128000DBCFE9FF020EDBCFEAFFEF500F0B006E62
:10129000FE0EDB50005C14E10F0E006E010EDBCF82
:1012A000E9FF020EDBCFEAFF0050EF16200E006EC2
:1012B000010EDBCFE9FF020EDBCFEAFF0050EF2685
:1012C000010EDB2A020E01E3DB2ADF2ABAD7F29CE9
:1012D0001BEF0FF0000E00D0006E030EE15C02E287
:1012E000E16AE552E16E0050E552E7CFD9FF120006
:1012F000F29C00016E8500016EA302D0000E46D064
:1013000000016E9500016EA13DD0F29CD8CFE4FFA4
:10131000E8CFE4FFE0CFE4FFD9CFE4FFDACFE4FF8A
:10132000E9CFE4FFEACFE4FFF8CFE4FFF7CFE4FF33
:10133000F6CFE4FFF5CFE4FFF4CFE4FFF3CFE4FF13
:10134000210EE96AEA6AE850E806000903E0EECFF8
:10135000E4FFF9D7FCCFE9FFFC50000808E2FDCF1D
:10136000E4FFFECFE4FFFFCFE4FF0600F5D7E9CFAF
:10137000E4FFE45260CEE9FF61CEEAFFE1CFEEFF89
:10138000E2CFEEFFEEEF0DF0000E00D012000E01E6
:101390005F5100D01200D9CFE6FFE1CFD9FFF29C18
:1013A000D8CFE4FFE8CFE4FFE0CFE4FFD9CFE4FFFC
:1013B000DACFE4FFE9CFE4FFEACFE4FFF8CFE4FFC0
:1013C000F7CFE4FFF6CFE4FFF5CFE4FFF4CFE4FF7F
:1013D000F3CFE4FF210EE96AEA6AE850E806000963
:1013E00003E0EECFE4FFF9D7FCCFE9FFFC500008A3
:1013F00008E2FDCFE4FFFECFE4FFFFCFE4FF0600ED
:10140000F5D7E9CFE4FFE452E1CFE9FFE2CFEAFF0D
:10141000E1CFEEFFE2CFEEFFE1CF5EFEE2CF5DFE79
:10142000FE0EDBCF5FFEFC6A5EEF0DF0E552E7CF0C
:10143000D9FF1200D9CFE6FFE1CFD9FF5ECEE1FFA1
:101440005DCEE2FF58EC0EF0E552E7CFD9FF120077
:10145000F29CD8CFE4FFE8CFE4FFE0CFE4FFD9CFA0
:10146000E4FFDACFE4FFE9CFE4FFEACFE4FFF8CF0F
:10147000E4FFF7CFE4FFF6CFE4FFF5CFE4FFF4CFCE
:10148000E4FFF3CFE4FF210EE96AEA6AE850E806D8
:10149000000903E0EECFE4FFF9D7FCCFE9FFFC50F1
:1014A000000808E2FDCFE4FFFECFE4FFFFCFE4FF3A
:1014B0000600F5D7E9CFE4FFE45260CEE9FF61CE44
:1014C000EAFFE1CFEEFFE2CFEEFFB9EF0DF0120041
:1014D000D9CFE6FFE1CFD9FFFD0EDBCF00F0FE0E46
:1014E000DBCF01F00E015A51026E036A0250005C1C
:1014F0000350015802E3030E73D0FD0EDBCFE9FF6A
:10150000FE0EDBCFEAFF030EEA02F3CFEAFFE902A9
:10151000F3CFE9FFF450EA26570EE9260E0EEA2231
:10152000020EE926000EEA22EF0402E1010E58D075
:101530006AC0E6FFFD0EDBCFE9FFFE0EDBCFEAFF60
:10154000030EEA02F3CFEAFFE902F3CFE9FFF4501A
:10155000EA26570EE9260E0EEA22EE52E9CF00F0F7
:10156000EACF01F000C0E6FF01C0E6FFA6DCE552CD
:10157000E552E5526AC0E6FFFD0EDBCFE9FFFE0E45
:10158000DBCFEAFF030EEA02F3CFEAFFE902F3CF73
:10159000E9FFF450EA26570EE9260E0EEA22EF5034
:1015A000E66E2DDCE552E552FD0EDBCFE9FFFE0EC7
:1015B000DBCFEAFF030EEA02F3CFEAFFE902F3CF43
:1015C000E9FFF450EA26570EE9260E0EEA22020E33
:1015D000E926000EEA22010EEF6E3ADF000E00D07F
:1015E000E552E7CFD9FF1200D9CFE6FFE1CFD9FF0F
:1015F000FD0EDBCF00F0FE0EDBCF01F00E015A51E5
:10160000026E036A0250005C0350015802E3030EAD
:1016100052D0FD0EDBCFE9FFFE0EDBCFEAFF030E5B
:10162000EA02F3CFEAFFE902F3CFE9FFF450EA263A
:10163000570EE9260E0EEA22020EE926000EEA22D5
:10164000EF5002E1010E37D06AC0E6FFFD0EDBCF9E
:10165000E9FFFE0EDBCFEAFF030EEA02F3CFEAFF5B
:10166000E902F3CFE9FFF450EA26570EE9260E0E01
:10167000EA22EE52EF50E66EFFEC06F0E552E5523C
:10168000FD0EDBCFE9FFFE0EDBCFEAFF030EEA0221
:10169000F3CFEAFFE902F3CFE9FFF450EA26570E51
:1016A000E9260E0EEA22020EE926000EEA22EF6A71
:1016B000CFDE000E00D0E552E7CFD9FF1200D9CF20
:1016C000E6FFE1CFD9FF030EE126D950010FE96E05
:1016D000DACFEAFFA00EEE6E000EED6EDF6A100E9E
:1016E000DF5C71E2010EDBCFE9FF020EDBCFEAFF28
:1016F000EF500F0B006EFE0EDB50005C5DE1010E43
:10170000DBCFE9FF020EDBCFEAFFEF50200B02E157
:10171000070E60D0DF50016A800F006E000E0122BC
:10172000010E00C0DBFF020E01C0DBFF010EDBCFAC
:10173000E9FF020EDBCFEAFFFD0EDB50EF12DF50B8
:10174000016A900F006E000E0122010E00C0DBFF47
:10175000020E01C0DBFFFD0EDBCFE6FF010EDBCF8B
:10176000E9FF020EDBCFEAFFEF50E552E71403E199
:10177000000E30D021D0DF50016AA00F006E000EA5
:101780000122010E00C0DBFF020E01C0DBFF0F0EC5
:10179000006E010EDBCFE9FF020EDBCFEAFF005047
:1017A000EF16010EDBCFE9FF020EDBCFEAFFEF8A77
:1017B00078EC09F0000E0ED0DF2A010EDB2A020EB3
:1017C00001E3DB2A8CD7100EDF5C02E1030E02D0AE
:1017D000000E00D0006E030EE15C02E2E16AE55209
:1017E000E16E0050E552E7CFD9FF1200D9CFE6FFF6
:1017F000E1CFD9FF030EE126D950010FE96EDACF10
:10180000EAFFA00EEE6E000EED6EDF6A100EDF5CDA
:1018100042E2010EDBCFE9FF020EDBCFEAFFEF5021
:101820000F0B00016A5D30E1DF50016A800F006E2E
:10183000000E0122010E00C0DBFF020E01C0DBFF23
:10184000FE0EDB1C006E010EDBCFE9FF020EDBCFCC
:10185000EAFF0050EF16DF50016A900F006E000E95
:101860000122010E00C0DBFF020E01C0DBFFFE0EF5
:10187000DB1C006E010EDBCFE9FF020EDBCFEAFFBF
:101880000050EF16000E09D0DF2A010EDB2A020EEF
:1018900001E3DB2ABBD7000E00D0006E030EE15C33
:1018A00002E2E16AE552E16E0050E552E7CFD9FF6E
:1018B0001200D9CFE6FFE1CFD9FF030EE126D950C0
:1018C000010FE96EDACFEAFFA00EEE6E000EED6EAC
:1018D000DF6A100EDF5C3EE2010EDBCFE9FF020E95
:1018E000DBCFEAFFEF500F0B006EFE0EDB50005C0B
:1018F0002AE1010EDBCFE9FF020EDBCFEAFFEF505A
:10190000E00B02E1070E2DD0DF50016A800F006E60
:10191000000E0122010E00C0DBFF020E01C0DBFF42
:10192000010EDBCFE9FF020EDBCFEAFFEF50E66EE0
:10193000FC0EDBCFE9FFFD0EDBCFEAFFE552E750FF
:10194000EF6E000E0ED0DF2A010EDB2A020E01E33D
:10195000DB2ABFD7100EDF5C02E1030E02D0000EBF
:1019600000D0006E030EE15C02E2E16AE552E16E36
:101970000050E552E7CFD9FF1200D9CFE6FFE1CF03
:10198000D9FF030EE126D950010FE96EDACFEAFF45
:10199000A00EEE6E000EED6EDF6A100EDF5C5CE2F4
:1019A000010EDBCFE9FF020EDBCFEAFFEF500F0B9A
:1019B00000016A5D4AE1F29CDF50016A900F006EFF
:1019C000000E0122010E00C0DBFF020E01C0DBFF92
:1019D000010EDBCFE9FF020EDBCFEAFFFE0EDBCF0D
:1019E000EFFFDF50016A800F006E000E0122010E32
:1019F00000C0DBFF020E01C0DBFFFE0EDBCFE6FF07
:101A0000010EDBCFE9FF020EDBCFEAFFEF50E5521C
:101A1000E71418E1DF50016AA00F006E000E0122EA
:101A2000010E00C0DBFF020E01C0DBFF800E006E66
:101A3000010EDBCFE9FF020EDBCFEAFF0050EF26FD
:101A400078EC09F0F28C000E0ED0DF2A010EDB2AB2
:101A5000020E01E3DB2AA1D7100EDF5C02E1030EC8
:101A600002D0000E00D0006E030EE15C02E2E16ADB
:101A7000E552E16E0050E552E7CFD9FF1200F28E39
:101A8000F28C1200F29EF29C1200F28EF28C120086
:101A9000F29EF29C1200F28C1200F29C12006EC0B8
:101AA0006EFE00016E83120000016EA504D06ECEA2
:101AB0006EF078EC09F06ECE6EF01200EA6AE96A18
:101AC000E16AE26AF86AFA6AFF0EEE6AE962FDD735
:101AD000EE6AEA6AFC6A1F0EFC2AFF6AFE6AFD6A69
:101AE000FC62FAD7FC6AFC2A880ED56E9D6AA06A51
:101AF000D06A9F6AA26A800EF16ED08EA00EF26E3E
:101B0000F2840001010EFC6E6B6B6D6F6A6BEA6A0A
:101B1000B00EE96EF86A5CCEF7FF5BCEF6FF090007
:101B2000F550D8B429D0F5CFEFFF0900F550E16E9C
:101B30000900F550E26EE550AD0EE56EDE0EE76E83
:101B4000E650E65009000900E9980900F550EF2633
:101B50000900F550EF260900F550E126E86AE22277
:101B60000900E550AD0EE56EDE0EE76EE92AE98864
:101B7000D6D700016D6B6D2BEA6AB00EE96E6D5120
:101B8000D8B42CD06D6B0F0EEF146B6FD8B4F4D7A4
:101B9000EFCF6CF00F0EEC146B6301D0F4D76B65D4
:101BA00001D0F1D7ED50EE6E6CC0EFFFE998EDCFAC
:101BB0006CF0EF506CC0EEFFEF6EE99AEDCF6CF079
:101BC000EF506CC0EEFFEF6EE988EDCF6CF0EF5098
:101BD0006CC0EEFFEF6EE98A6D2BD5D700016E91D8
:101BE0006A51D8B430D0EA6A9F0EE96EE92A1F0E16
:101BF000EF146A63FBD7EF9C6A6BE9880F0EEF1452
:101C00006B6F0F0EEC146B631ED000D0EDCF6CF039
:101C1000EF506CC0EEFFEF6EE998EDCF6CF0EF5037
:101C20006CC0EEFFEF6EE99AEDCF6CF0EF506CC038
:101C3000EEFFEF6EE988EDCF6CF0EF506CC0EEFF79
:101C4000EF6EE98ADED7EA6A9F0EE96EE92AEFAA0B
:101C500074D0EFBE72D00001EF8C1F0EEF146A6FCC
:101C600000016E81F86A5CCEF7FF5BCEF6FF060ED0
:101C7000F626E86AF72200016A510900F56201D0F0
:101C800005D0080EF626E86AF722F6D7060EF65EAD
:101C9000E86AF75A0900F550E96E0900F550EA6E56
:101CA0000900F550706F0900F550716FA8EF0EF044
:101CB0000001E5CF6BF0E5CF6BF0FC6A0500E55065
:101CC000FF6EE550FE6EE550FD6EFC506B63F6D77F
:101CD000EA6A1F0EE96EE5CFEDFFE950D8A8FBD701
:101CE000E5CFF3FFE5CFF4FFE5CFF5FFE5CFF6FF56
:101CF000E5CFF7FFE5CFF8FFE5CFEAFFE5CFE9FF56
:101D0000E5CFDAFFE5CFD9FFE5CFE0FFE5CFE8FF8C
:101D1000E5CFD8FFF28C1000E9CFE1FFE9CFD9FF82
:101D2000EACFE2FFEACFDAFFFC6AFC2A7051FD6ECF
:101D30007151FE6EFF6AF28C1000AF0EE95C86E115
:101D40005DCEE2FF5ECEE1FF0001F28CFC6AFCD7C3
:101D5000E9CF60FEEACF61FEEDCFE8FFAD0EEDCF3B
:101D6000E1FFE162F5EF0EF0DE0EEDCFE1FFE162A3
:101D7000F5EF0EF0F86A5CCEF7FF5BCEF6FF060ECD
:101D8000F626E86AF72200016A510900F56201D0DF
:101D900005D0080EF626E86AF722F6D760CEE9FFEE
:101DA00061CEEAFF0900F550E926E86AEA22090057
:101DB000EDCFE8FFAD0EEDCFE1FFE16207EF0FF0F1
:101DC000DE0EEDCFE1FFE16207EF0FF060CEE9FF3D
:101DD00061CEEAFFEECFE1FFEECFE2FFE150D8A403
:101DE00067D7E250D8B498D763D7EA6A9F0EE96EF6
:101DF000E92A1F0EEF146A63FBD7EF9AEF9CEF9E60
:101E00006FC0E8FFF00B6A25E8CF6FF0E7D6EA6A0B
:101E10009F0EE96EE92A1F0EEF146A63FBD7EF9A53
:101E2000EF9CEF9E6FC0E8FFE838F00B6A25E838BA
:101E3000E8CF6FF0D3D6F86A5CCEF7FF5BCEF6FF43
:101E4000060EF626E86AF72200016A510900F562DB
:101E500001D005D0080EF626E86AF722F6D7060E5E
:101E6000F65EE86AF75A0900F550E96E0900F55088
:101E7000EA6EE86AEE6EEF6EEEEF0DF0FFFFFFFF29
:101E8000FFFFFFFFFFFFFFFFFFFFFFFFFFFFFFFF62
:101E9000FFFFFFFFFFFFFFFFFFFFFFFFFFFFFFFF52
:101EA000FFFFFFFFFFFFFFFFFFFFFFFFFFFFFFFF42
:101EB000FFFFFFFFFFFFFFFFFFFFFFFFFFFFFFFF32
:10300000D8CFE4FFE0CFE4FFE46EDACFE4FFE2CF15
:10301000DAFFE9CFE4FFEACFE4FFF6CFE4FFF7CF32
:10302000E4FFF5CFE4FFF3CFE4FFF4CFE4FFFACF02
:10303000E4FF00EE08F0020EE80403E3EECFE4FF45
:10304000FBD700EE00F0080EE80403E3EECFE4FF48
:10305000FBD7E6524FEC0DF0F2A402D09BEC05F04A
:103060009EA80FD09E980E0166510AE074D8AD6EEE
:1030700072D83A0801E1666B64290F0B646F01D0C6
:10308000AC9A9EAA2FD0AECF00FE9E9A240E0E01BF
:10309000005D03E162CE63FE25D03A0E005D1AE1C9
:1030A0000E01635152D8EF5047081CE163291F0BF2
:1030B000636FE8504AD8EF504F0814E10E01010E3B
:1030C0006A6F100EE66E010EE66E5FEC0BF0E552D5
:1030D000E55208D00E01625138D800CEEFFF6229C8
:1030E0001F0B626FAB50020B03E1AB50040B02E00D
:1030F000AB98AB8854EC0DF0E55200EE07F0080EEB
:10310000E80403E3E5CFEDFFFBD700EE09F0020E84
:10311000E80403E3E5CFEDFFFBD7E5CFFAFFE5CF0A
:10312000F4FFE5CFF3FFE5CFF5FFE5CFF7FFE5CF00
:10313000F6FFE5CFEAFFE5CFE9FFE5CFDAFFE5509F
:10314000E5CFE0FFE5CFD8FF1000EA6A010FE96E96
:103150000E0EEA2212006451EA6A210FE96E0E0E89
:10316000EA22EF5012009F989D889F9A9D8A9E6A3E
:103170001200D9CFE6FFE1CFD9FF020EE126DE6AC9
:10318000DD6AF1DF100EE66EBDEC0CF0E552100EBC
:10319000E66EF6EC0BF0E552320EE66EE66AE66E8F
:1031A000E66AE66A80EC01F0006E050EE15E005012
:1031B000800EE66EBDEC0CF0E552800EE66EF6EC8D
:1031C0000BF0E5520E016551EA6A210FE96E0E0E11
:1031D000EA22570EEF6E65290F0B656FE850EA6A19
:1031E000210FE96E0E0EEA223A0EEF6E65290F0BE3
:1031F000656F0E01010E666F240EAD6EAC8ADF2A7C
:10320000010E01E3DB2AD9CFE9FFDACFEAFFF40EA2
:10321000EE18CEE1010EED18CBE19CEC08F0020EA9
:10322000E15C02E2E16AE552E16EE552E7CFD9FFE7
:103230001200FC6A0E016D6B06D86DCEE6FFCBEC7A
:1032400009F0E552FAD7EA6AE96A0E014F0E6B6F90
:10325000F60E6C6F080ED56E6CCED7FF6BCED6FF18
:10326000100E936E948E949C400EAF6E040EAC6E56
:10327000900EAB6E1200120003D002D012001200AA
:10328000D9CFE6FFE552E7CFD9FF12001EEE80F05E
:103290002EEE80F0F86A099CFF0EE96E0E0EEA6EC3
:1032A000010E006E000EED6E0052FDE19CEC19F077
:1032B00019EC19F0FDD71200C8000A0064000000E4
:1032C0000000FFFF010000000000000000000000FF
:1032D000003B0E01800000000101000000000A0018
:1032E00000010202FFFFFFFFFFFFFFFFFFFFFFFFE5
:1032F000FFFFFFFFFFFFFFFFFFFFFFFFFFFFFFFFDE
:10330000DACFE4FFE652F2B2F292E552E5CFDAFF0D
:1033100011000300FA330000620E000005000000F7
:10332000F6330000670E000004000000B832000011
:10333000310E00002C000000120EF66E330EF76EF8
:10334000000EF86E00010900F550656F0900F55098
:10335000666F03E1656701D03DD00900F550606FED
:103360000900F550616F0900F550626F090009000E
:10337000F550E96E0900F550EA6E090009000900F0
:10338000F550636F0900F550646F09000900F6CF2E
:1033900067F0F7CF68F0F8CF69F060C0F6FF61C062
:1033A000F7FF62C0F8FF0001635302E1645307E0D6
:1033B0000900F550EE6E6307F8E26407F9D767C0BD
:1033C000F6FF68C0F7FF69C0F8FF00016507000E4F
:1033D000665BBFD71200800EF36E00EE00F00F0E9A
:1033E00001D81200EA6002D0EE6AFCD7F350E9601F
:1033F0001200EE6AFCD7000000000000000000FF91
:1034000046EF19F01200FFFFFFFFFFFFFFFFFFFF76
:10341000FFFFFFFFFFFFFFFFFFFFFFFFFFFFFFFFBC
:10342000FFFFFFFFFFFFFFFFFFFFFFFFFFFFFFFFAC
:10343000FFFFFFFFFFFFFFFFFFFFFFFFFFFFFFFF9C
:10344000FFFFFFFFFFFFFFFFFFFFFFFFFFFFFFFF8C
:020000040020DA
:020000040030CA
:0E000000FF06191EFF8381FF0FC00FE00F40A7
:0200000400F00A
:10000000FFFFFFFFFFFFFFFFFFFFFFFFFFFFFFFF00
:10001000FFFFFFFFFFFFFFFFFFFFFFFFFFFFFFFFF0
:10002000FFFFFFFFFFFFFFFFFFFFFFFFFFFFFFFFE0
:10003000FFFFFFFFFFFFFFFFFFFFFFFFFFFFFFFFD0
:00000001FF
